{
  "contractName": "TodoApp",
  "abi": [
    {
      "constant": true,
      "inputs": [
        {
          "internalType": "address",
          "name": "",
          "type": "address"
        }
      ],
      "name": "ownerTodoCount",
      "outputs": [
        {
          "internalType": "uint256",
          "name": "",
          "type": "uint256"
        }
      ],
      "payable": false,
      "stateMutability": "view",
      "type": "function"
    },
    {
      "constant": true,
      "inputs": [
        {
          "internalType": "uint256",
          "name": "",
          "type": "uint256"
        }
      ],
      "name": "todoToOwner",
      "outputs": [
        {
          "internalType": "address",
          "name": "",
          "type": "address"
        }
      ],
      "payable": false,
      "stateMutability": "view",
      "type": "function"
    },
    {
      "constant": true,
      "inputs": [
        {
          "internalType": "uint256",
          "name": "",
          "type": "uint256"
        }
      ],
      "name": "todos",
      "outputs": [
        {
          "internalType": "uint256",
          "name": "taskid",
          "type": "uint256"
        },
        {
          "internalType": "string",
          "name": "task",
          "type": "string"
        },
        {
          "internalType": "bool",
          "name": "flag",
          "type": "bool"
        }
      ],
      "payable": false,
      "stateMutability": "view",
      "type": "function"
    },
    {
      "constant": false,
      "inputs": [
        {
          "internalType": "string",
          "name": "_task",
          "type": "string"
        }
      ],
      "name": "TodoCreate",
      "outputs": [],
      "payable": false,
      "stateMutability": "nonpayable",
      "type": "function"
    },
    {
      "constant": false,
      "inputs": [
        {
          "internalType": "uint256",
          "name": "id",
          "type": "uint256"
        }
      ],
      "name": "TodoRemove",
      "outputs": [],
      "payable": false,
      "stateMutability": "nonpayable",
      "type": "function"
    },
    {
      "constant": true,
      "inputs": [
        {
          "internalType": "address",
          "name": "owner",
          "type": "address"
        }
      ],
      "name": "getTodosByOwner",
      "outputs": [
        {
          "internalType": "uint256[]",
          "name": "",
          "type": "uint256[]"
        }
      ],
      "payable": false,
      "stateMutability": "view",
      "type": "function"
    }
  ],
  "bytecode": "0x60806040526000805534801561001457600080fd5b506108c2806100246000396000f3fe608060405234801561001057600080fd5b50600436106100625760003560e01c80632edc86301461006757806369af9fa1146100bf5780636c68239e146100ed578063bc8bc2b4146101a8578063cb945e3714610261578063fc1be84d146102fa575b600080fd5b6100a96004803603602081101561007d57600080fd5b81019080803573ffffffffffffffffffffffffffffffffffffffff169060200190929190505050610368565b6040518082815260200191505060405180910390f35b6100eb600480360360208110156100d557600080fd5b8101908080359060200190929190505050610380565b005b6101a66004803603602081101561010357600080fd5b810190808035906020019064010000000081111561012057600080fd5b82018360208201111561013257600080fd5b8035906020019184600183028401116401000000008311171561015457600080fd5b91908080601f016020809104026020016040519081016040528093929190818152602001838380828437600081840152601f19601f82011690508083019250505050505050919291929050505061045a565b005b6101d4600480360360208110156101be57600080fd5b81019080803590602001909291905050506105ac565b604051808481526020018060200183151515158152602001828103825284818151815260200191508051906020019080838360005b83811015610224578082015181840152602081019050610209565b50505050905090810190601f1680156102515780820380516001836020036101000a031916815260200191505b5094505050505060405180910390f35b6102a36004803603602081101561027757600080fd5b81019080803573ffffffffffffffffffffffffffffffffffffffff169060200190929190505050610688565b6040518080602001828103825283818151815260200191508051906020019060200280838360005b838110156102e65780820151818401526020810190506102cb565b505050509050019250505060405180910390f35b6103266004803603602081101561031057600080fd5b81019080803590602001909291905050506107b5565b604051808273ffffffffffffffffffffffffffffffffffffffff1673ffffffffffffffffffffffffffffffffffffffff16815260200191505060405180910390f35b60036020528060005260406000206000915090505481565b3373ffffffffffffffffffffffffffffffffffffffff166002600083815260200190815260200160002060009054906101000a900473ffffffffffffffffffffffffffffffffffffffff1673ffffffffffffffffffffffffffffffffffffffff16146103eb57600080fd5b600181815481106103f857fe5b906000526020600020906003020160020160009054906101000a900460ff1661042057600080fd5b60006001828154811061042f57fe5b906000526020600020906003020160020160006101000a81548160ff02191690831515021790555050565b60006001806040518060600160405280600054815260200185815260200160011515815250908060018154018082558091505090600182039060005260206000209060030201600090919290919091506000820151816000015560208201518160010190805190602001906104d09291906107e8565b5060408201518160020160006101000a81548160ff0219169083151502179055505050039050336002600083815260200190815260200160002060006101000a81548173ffffffffffffffffffffffffffffffffffffffff021916908373ffffffffffffffffffffffffffffffffffffffff160217905550600360003373ffffffffffffffffffffffffffffffffffffffff1673ffffffffffffffffffffffffffffffffffffffff1681526020019081526020016000206000815480929190600101919050555060008081548092919060010191905055505050565b600181815481106105b957fe5b9060005260206000209060030201600091509050806000015490806001018054600181600116156101000203166002900480601f01602080910402602001604051908101604052809291908181526020018280546001816001161561010002031660029004801561066b5780601f106106405761010080835404028352916020019161066b565b820191906000526020600020905b81548152906001019060200180831161064e57829003601f168201915b5050505050908060020160009054906101000a900460ff16905083565b606080600360008473ffffffffffffffffffffffffffffffffffffffff1673ffffffffffffffffffffffffffffffffffffffff168152602001908152602001600020546040519080825280602002602001820160405280156106f95781602001602082028038833980820191505090505b509050600080905060008090505b6001805490508110156107aa578473ffffffffffffffffffffffffffffffffffffffff166002600083815260200190815260200160002060009054906101000a900473ffffffffffffffffffffffffffffffffffffffff1673ffffffffffffffffffffffffffffffffffffffff16141561079d578083838151811061078857fe5b60200260200101818152505081806001019250505b8080600101915050610707565b508192505050919050565b60026020528060005260406000206000915054906101000a900473ffffffffffffffffffffffffffffffffffffffff1681565b828054600181600116156101000203166002900490600052602060002090601f016020900481019282601f1061082957805160ff1916838001178555610857565b82800160010185558215610857579182015b8281111561085657825182559160200191906001019061083b565b5b5090506108649190610868565b5090565b61088a91905b8082111561088657600081600090555060010161086e565b5090565b9056fea265627a7a723158202071b08e1b225906fa42ff9d2d43bd64ab0fa9da016d00c7e9333973f42ec73264736f6c63430005110032",
  "source": "// ⓪ コンパイラバージョンを指定する\npragma solidity ^0.5.0;\n//truffle compile\n//truffle migrate --network sepolia\n//truffle migrate --network sepolia --reset\n// ① Contract名を宣言\ncontract TodoApp {\n\n    uint num = 0;\n\n    // ③ 構造体の性質を持った配列を変数todosとして定義\n    struct Todo {\n        uint taskid;\n        string task;\n        bool flag;\n    }\n\n    Todo[] public todos;\n\n    // ④ mappingを宣言\n    mapping (uint => address) public todoToOwner;\n\n    // ⑤ mappingを宣言\n    mapping (address => uint) public ownerTodoCount;\n\n    // ⑥ Todoを作成する関数 （Gas発生）\n    function TodoCreate(string memory _task) public {\n        uint id = todos.push( Todo(num, _task, true) ) - 1;\n        todoToOwner[id] = msg.sender;\n        ownerTodoCount[msg.sender]++;\n        num++;\n    }\n\n    // ⑦ Todoの状態を完了にする関数 （Gas発生）\n    function TodoRemove(uint id) external {\n        require(todoToOwner[id] == msg.sender);\n        require(todos[id].flag);\n        todos[id].flag = false;\n    }\n\n    // ⑧ 自分のイーサリアムアドレスに紐づくTodoのidを取得する関数 （ガス代不要）\n  \tfunction getTodosByOwner(address owner) external view returns(uint[] memory) {\n    \tuint[] memory result = new uint[](ownerTodoCount[owner]);\n    \tuint counter = 0;\n    \tfor (uint i = 0; i < todos.length; i++) {\n    \t\tif (todoToOwner[i] == owner){\n    \t\t\tresult[counter] = i;\n    \t\t\tcounter++;\n    \t\t}\n    \t}\n    \treturn result;\n\t}\n\n}\n",
  "sourcePath": "C:\\src\\TodoTruffle\\contracts\\TodoApp.sol",
  "compiler": {
    "name": "solc",
    "version": "0.5.17+commit.d19bba13.Emscripten.clang"
  },
  "schemaVersion": "3.4.16",
  "updatedAt": "2024-01-23T03:30:01.900Z",
  "networkType": "ethereum",
  "devdoc": {
    "methods": {}
  },
  "userdoc": {
    "methods": {}
  }
}